{
  "contractName": "Dummy",
  "abi": [
    {
      "inputs": [],
      "stateMutability": "nonpayable",
      "type": "constructor"
    },
    {
      "anonymous": false,
      "inputs": [
        {
          "indexed": true,
          "internalType": "address",
          "name": "_from",
          "type": "address"
        },
        {
          "indexed": true,
          "internalType": "address",
          "name": "_to",
          "type": "address"
        },
        {
          "indexed": false,
          "internalType": "uint256",
          "name": "_value",
          "type": "uint256"
        }
      ],
      "name": "Approve",
      "type": "event"
    },
    {
      "anonymous": false,
      "inputs": [
        {
          "indexed": true,
          "internalType": "address",
          "name": "_from",
          "type": "address"
        },
        {
          "indexed": true,
          "internalType": "address",
          "name": "_to",
          "type": "address"
        },
        {
          "indexed": false,
          "internalType": "uint256",
          "name": "_value",
          "type": "uint256"
        }
      ],
      "name": "Transfer",
      "type": "event"
    },
    {
      "inputs": [
        {
          "internalType": "address",
          "name": "",
          "type": "address"
        },
        {
          "internalType": "address",
          "name": "",
          "type": "address"
        }
      ],
      "name": "allowance",
      "outputs": [
        {
          "internalType": "uint256",
          "name": "",
          "type": "uint256"
        }
      ],
      "stateMutability": "view",
      "type": "function",
      "constant": true
    },
    {
      "inputs": [
        {
          "internalType": "address",
          "name": "",
          "type": "address"
        }
      ],
      "name": "balance",
      "outputs": [
        {
          "internalType": "uint256",
          "name": "",
          "type": "uint256"
        }
      ],
      "stateMutability": "view",
      "type": "function",
      "constant": true
    },
    {
      "inputs": [],
      "name": "decimal",
      "outputs": [
        {
          "internalType": "uint256",
          "name": "",
          "type": "uint256"
        }
      ],
      "stateMutability": "view",
      "type": "function",
      "constant": true
    },
    {
      "inputs": [],
      "name": "namew",
      "outputs": [
        {
          "internalType": "string",
          "name": "",
          "type": "string"
        }
      ],
      "stateMutability": "view",
      "type": "function",
      "constant": true
    },
    {
      "inputs": [],
      "name": "symbol",
      "outputs": [
        {
          "internalType": "string",
          "name": "",
          "type": "string"
        }
      ],
      "stateMutability": "view",
      "type": "function",
      "constant": true
    },
    {
      "inputs": [],
      "name": "totalsupply",
      "outputs": [
        {
          "internalType": "uint256",
          "name": "",
          "type": "uint256"
        }
      ],
      "stateMutability": "view",
      "type": "function",
      "constant": true
    },
    {
      "inputs": [
        {
          "internalType": "address",
          "name": "_to",
          "type": "address"
        },
        {
          "internalType": "uint256",
          "name": "_value",
          "type": "uint256"
        }
      ],
      "name": "transfer",
      "outputs": [
        {
          "internalType": "bool",
          "name": "success",
          "type": "bool"
        }
      ],
      "stateMutability": "nonpayable",
      "type": "function"
    },
    {
      "inputs": [
        {
          "internalType": "address",
          "name": "_spender",
          "type": "address"
        },
        {
          "internalType": "uint256",
          "name": "_value",
          "type": "uint256"
        }
      ],
      "name": "approve",
      "outputs": [
        {
          "internalType": "bool",
          "name": "success",
          "type": "bool"
        }
      ],
      "stateMutability": "nonpayable",
      "type": "function"
    },
    {
      "inputs": [
        {
          "internalType": "address",
          "name": "_from",
          "type": "address"
        },
        {
          "internalType": "address",
          "name": "_to",
          "type": "address"
        },
        {
          "internalType": "uint256",
          "name": "_value",
          "type": "uint256"
        }
      ],
      "name": "transferfrom",
      "outputs": [
        {
          "internalType": "bool",
          "name": "success",
          "type": "bool"
        }
      ],
      "stateMutability": "nonpayable",
      "type": "function"
    }
  ],
  "bytecode": "0x60806040526040518060400160405280600b81526020017f64756d6d7920746f6b656e00000000000000000000000000000000000000000081525060009080519060200190620000519291906200010d565b506040518060400160405280600981526020017f64756d20746f6b656e0000000000000000000000000000000000000000000000815250600190805190602001906200009f9291906200010d565b5069d3c21bcecceda10000006002556012600355348015620000c057600080fd5b50600254600460003373ffffffffffffffffffffffffffffffffffffffff1673ffffffffffffffffffffffffffffffffffffffff1681526020019081526020016000208190555062000222565b8280546200011b90620001ec565b90600052602060002090601f0160209004810192826200013f57600085556200018b565b82601f106200015a57805160ff19168380011785556200018b565b828001600101855582156200018b579182015b828111156200018a5782518255916020019190600101906200016d565b5b5090506200019a91906200019e565b5090565b5b80821115620001b95760008160009055506001016200019f565b5090565b7f4e487b7100000000000000000000000000000000000000000000000000000000600052602260045260246000fd5b600060028204905060018216806200020557607f821691505b602082108114156200021c576200021b620001bd565b5b50919050565b610c4a80620002326000396000f3fe608060405234801561001057600080fd5b50600436106100935760003560e01c806395d89b411161006657806395d89b41146101345780639766bec414610152578063a9059cbb14610170578063dd62ed3e146101a0578063e3d670d7146101d057610093565b8063095ea7b31461009857806363b0545f146100c857806372dd529b146100f857806376809ce314610116575b600080fd5b6100b260048036038101906100ad91906108df565b610200565b6040516100bf919061093a565b60405180910390f35b6100e260048036038101906100dd9190610955565b6102f2565b6040516100ef919061093a565b60405180910390f35b610100610578565b60405161010d91906109b7565b60405180910390f35b61011e61057e565b60405161012b91906109b7565b60405180910390f35b61013c610584565b6040516101499190610a6b565b60405180910390f35b61015a610612565b6040516101679190610a6b565b60405180910390f35b61018a600480360381019061018591906108df565b6106a0565b604051610197919061093a565b60405180910390f35b6101ba60048036038101906101b59190610a8d565b610809565b6040516101c791906109b7565b60405180910390f35b6101ea60048036038101906101e59190610acd565b61082e565b6040516101f791906109b7565b60405180910390f35b600081600560003373ffffffffffffffffffffffffffffffffffffffff1673ffffffffffffffffffffffffffffffffffffffff16815260200190815260200160002060008573ffffffffffffffffffffffffffffffffffffffff1673ffffffffffffffffffffffffffffffffffffffff168152602001908152602001600020819055508273ffffffffffffffffffffffffffffffffffffffff163373ffffffffffffffffffffffffffffffffffffffff167f6e11fb1b7f119e3f2fa29896ef5fdf8b8a2d0d4df6fe90ba8668e7d8b2ffa25e846040516102e091906109b7565b60405180910390a36001905092915050565b6000600460008573ffffffffffffffffffffffffffffffffffffffff1673ffffffffffffffffffffffffffffffffffffffff1681526020019081526020016000205482111561034057600080fd5b600560008573ffffffffffffffffffffffffffffffffffffffff1673ffffffffffffffffffffffffffffffffffffffff16815260200190815260200160002060003373ffffffffffffffffffffffffffffffffffffffff1673ffffffffffffffffffffffffffffffffffffffff168152602001908152602001600020548211156103c957600080fd5b81600460008673ffffffffffffffffffffffffffffffffffffffff1673ffffffffffffffffffffffffffffffffffffffff16815260200190815260200160002060008282546104189190610b29565b9250508190555081600460008573ffffffffffffffffffffffffffffffffffffffff1673ffffffffffffffffffffffffffffffffffffffff168152602001908152602001600020600082825461046e9190610b5d565b9250508190555081600560008673ffffffffffffffffffffffffffffffffffffffff1673ffffffffffffffffffffffffffffffffffffffff16815260200190815260200160002060003373ffffffffffffffffffffffffffffffffffffffff1673ffffffffffffffffffffffffffffffffffffffff16815260200190815260200160002060008282546105019190610b29565b925050819055508273ffffffffffffffffffffffffffffffffffffffff168473ffffffffffffffffffffffffffffffffffffffff167fddf252ad1be2c89b69c2b068fc378daa952ba7f163c4a11628f55a4df523b3ef8460405161056591906109b7565b60405180910390a3600190509392505050565b60025481565b60035481565b6001805461059190610be2565b80601f01602080910402602001604051908101604052809291908181526020018280546105bd90610be2565b801561060a5780601f106105df5761010080835404028352916020019161060a565b820191906000526020600020905b8154815290600101906020018083116105ed57829003601f168201915b505050505081565b6000805461061f90610be2565b80601f016020809104026020016040519081016040528092919081815260200182805461064b90610be2565b80156106985780601f1061066d57610100808354040283529160200191610698565b820191906000526020600020905b81548152906001019060200180831161067b57829003601f168201915b505050505081565b600081600460003373ffffffffffffffffffffffffffffffffffffffff1673ffffffffffffffffffffffffffffffffffffffff1681526020019081526020016000205410156106ee57600080fd5b81600460003373ffffffffffffffffffffffffffffffffffffffff1673ffffffffffffffffffffffffffffffffffffffff168152602001908152602001600020600082825461073d9190610b29565b9250508190555081600460008573ffffffffffffffffffffffffffffffffffffffff1673ffffffffffffffffffffffffffffffffffffffff16815260200190815260200160002060008282546107939190610b5d565b925050819055508273ffffffffffffffffffffffffffffffffffffffff163373ffffffffffffffffffffffffffffffffffffffff167fddf252ad1be2c89b69c2b068fc378daa952ba7f163c4a11628f55a4df523b3ef846040516107f791906109b7565b60405180910390a36001905092915050565b6005602052816000526040600020602052806000526040600020600091509150505481565b60046020528060005260406000206000915090505481565b600080fd5b600073ffffffffffffffffffffffffffffffffffffffff82169050919050565b60006108768261084b565b9050919050565b6108868161086b565b811461089157600080fd5b50565b6000813590506108a38161087d565b92915050565b6000819050919050565b6108bc816108a9565b81146108c757600080fd5b50565b6000813590506108d9816108b3565b92915050565b600080604083850312156108f6576108f5610846565b5b600061090485828601610894565b9250506020610915858286016108ca565b9150509250929050565b60008115159050919050565b6109348161091f565b82525050565b600060208201905061094f600083018461092b565b92915050565b60008060006060848603121561096e5761096d610846565b5b600061097c86828701610894565b935050602061098d86828701610894565b925050604061099e868287016108ca565b9150509250925092565b6109b1816108a9565b82525050565b60006020820190506109cc60008301846109a8565b92915050565b600081519050919050565b600082825260208201905092915050565b60005b83811015610a0c5780820151818401526020810190506109f1565b83811115610a1b576000848401525b50505050565b6000601f19601f8301169050919050565b6000610a3d826109d2565b610a4781856109dd565b9350610a578185602086016109ee565b610a6081610a21565b840191505092915050565b60006020820190508181036000830152610a858184610a32565b905092915050565b60008060408385031215610aa457610aa3610846565b5b6000610ab285828601610894565b9250506020610ac385828601610894565b9150509250929050565b600060208284031215610ae357610ae2610846565b5b6000610af184828501610894565b91505092915050565b7f4e487b7100000000000000000000000000000000000000000000000000000000600052601160045260246000fd5b6000610b34826108a9565b9150610b3f836108a9565b925082821015610b5257610b51610afa565b5b828203905092915050565b6000610b68826108a9565b9150610b73836108a9565b9250827fffffffffffffffffffffffffffffffffffffffffffffffffffffffffffffffff03821115610ba857610ba7610afa565b5b828201905092915050565b7f4e487b7100000000000000000000000000000000000000000000000000000000600052602260045260246000fd5b60006002820490506001821680610bfa57607f821691505b60208210811415610c0e57610c0d610bb3565b5b5091905056fea2646970667358221220344ac9b25c2b130da084574bf51e938e38a6e4f763b200a292583e29094a74f764736f6c634300080a0033",
  "immutableReferences": {},
  "source": "pragma solidity >= 0.8.0 < 0.9.0;\n\ncontract Dummy{\n\n  string public namew = \"dummy token\";\n  string public symbol = \"dum token\";\n  uint public totalsupply = 1000000000000000000000000;\n  uint public decimal = 18;\n\n  event Transfer(\n  \taddress indexed _from,\n\taddress indexed _to,\n\tuint _value\n  );\n  \n  event Approve(\n\taddress indexed _from,\n\taddress indexed _to,\n\tuint _value\n  );\n\n  mapping(address => uint256) public balance;\n  mapping(address => mapping(address => uint256)) public allowance;\n\n  constructor() public{\n\tbalance[msg.sender] = totalsupply;\n  }\n\n  function transfer(address _to, uint256 _value) public returns(bool success){\n\trequire(balance[msg.sender] >= _value);\n\tbalance[msg.sender] -= _value;\n\tbalance[_to] += _value;\n\temit Transfer(msg.sender, _to, _value);\n\treturn true;\n  }\n\n  function approve(address _spender, uint256 _value) public returns(bool success){\n\tallowance[msg.sender][_spender] = _value;\n\temit Approve(msg.sender, _spender, _value);\n\treturn true;\n  }\n  \n  function transferfrom(address _from, address _to, uint256 _value) public returns(bool success){\n\trequire(_value <= balance[_from]);\n\trequire(_value <= allowance[_from][msg.sender]);\n\n\tbalance[_from] -= _value;\n\tbalance[_to] += _value;\n\n\tallowance[_from][msg.sender] -= _value;\n\temit Transfer(_from, _to, _value);\n\treturn true;\n  }\n}\n",
  "sourcePath": "/Users/mlvb/Repos/solidity-training/staking_dapp/src/contracts/Dummy_Token.sol",
  "compiler": {
    "name": "solc",
    "version": "0.8.10+commit.fc410830.Emscripten.clang"
  },
  "schemaVersion": "3.4.3",
  "updatedAt": "2021-12-03T12:39:51.491Z",
  "networkType": "ethereum",
  "devdoc": {
    "kind": "dev",
    "methods": {},
    "version": 1
  },
  "userdoc": {
    "kind": "user",
    "methods": {},
    "version": 1
  }
}