{
  "contractName": "Staking_Dapp",
  "abi": [
    {
      "inputs": [
        {
          "internalType": "contract Dummy",
          "name": "_dummyToken",
          "type": "address"
        },
        {
          "internalType": "contract Tether",
          "name": "_tetherToken",
          "type": "address"
        }
      ],
      "stateMutability": "nonpayable",
      "type": "constructor"
    },
    {
      "inputs": [],
      "name": "dummy_token",
      "outputs": [
        {
          "internalType": "contract Dummy",
          "name": "",
          "type": "address"
        }
      ],
      "stateMutability": "view",
      "type": "function",
      "constant": true
    },
    {
      "inputs": [
        {
          "internalType": "address",
          "name": "",
          "type": "address"
        }
      ],
      "name": "hasstaked",
      "outputs": [
        {
          "internalType": "bool",
          "name": "",
          "type": "bool"
        }
      ],
      "stateMutability": "view",
      "type": "function",
      "constant": true
    },
    {
      "inputs": [
        {
          "internalType": "address",
          "name": "",
          "type": "address"
        }
      ],
      "name": "isstaking",
      "outputs": [
        {
          "internalType": "bool",
          "name": "",
          "type": "bool"
        }
      ],
      "stateMutability": "view",
      "type": "function",
      "constant": true
    },
    {
      "inputs": [],
      "name": "name",
      "outputs": [
        {
          "internalType": "string",
          "name": "",
          "type": "string"
        }
      ],
      "stateMutability": "view",
      "type": "function",
      "constant": true
    },
    {
      "inputs": [],
      "name": "owner",
      "outputs": [
        {
          "internalType": "address",
          "name": "",
          "type": "address"
        }
      ],
      "stateMutability": "view",
      "type": "function",
      "constant": true
    },
    {
      "inputs": [
        {
          "internalType": "uint256",
          "name": "",
          "type": "uint256"
        }
      ],
      "name": "stakers",
      "outputs": [
        {
          "internalType": "address",
          "name": "",
          "type": "address"
        }
      ],
      "stateMutability": "view",
      "type": "function",
      "constant": true
    },
    {
      "inputs": [
        {
          "internalType": "address",
          "name": "",
          "type": "address"
        }
      ],
      "name": "stakingBalance",
      "outputs": [
        {
          "internalType": "uint256",
          "name": "",
          "type": "uint256"
        }
      ],
      "stateMutability": "view",
      "type": "function",
      "constant": true
    },
    {
      "inputs": [],
      "name": "tether_token",
      "outputs": [
        {
          "internalType": "contract Tether",
          "name": "",
          "type": "address"
        }
      ],
      "stateMutability": "view",
      "type": "function",
      "constant": true
    },
    {
      "inputs": [
        {
          "internalType": "uint256",
          "name": "_amount",
          "type": "uint256"
        }
      ],
      "name": "stakeTokens",
      "outputs": [],
      "stateMutability": "nonpayable",
      "type": "function"
    },
    {
      "inputs": [],
      "name": "unstakeTokens",
      "outputs": [],
      "stateMutability": "nonpayable",
      "type": "function"
    },
    {
      "inputs": [],
      "name": "issuedummy",
      "outputs": [],
      "stateMutability": "nonpayable",
      "type": "function"
    }
  ],
  "bytecode": "0x60806040526040518060400160405280600c81526020017f5374616b696e6720446170700000000000000000000000000000000000000000815250600090805190602001906200005192919062000150565b503480156200005f57600080fd5b506040516200145f3803806200145f8339818101604052810190620000859190620002c3565b81600260006101000a81548173ffffffffffffffffffffffffffffffffffffffff021916908373ffffffffffffffffffffffffffffffffffffffff16021790555080600360006101000a81548173ffffffffffffffffffffffffffffffffffffffff021916908373ffffffffffffffffffffffffffffffffffffffff16021790555033600160006101000a81548173ffffffffffffffffffffffffffffffffffffffff021916908373ffffffffffffffffffffffffffffffffffffffff16021790555050506200036f565b8280546200015e9062000339565b90600052602060002090601f016020900481019282620001825760008555620001ce565b82601f106200019d57805160ff1916838001178555620001ce565b82800160010185558215620001ce579182015b82811115620001cd578251825591602001919060010190620001b0565b5b509050620001dd9190620001e1565b5090565b5b80821115620001fc576000816000905550600101620001e2565b5090565b600080fd5b600073ffffffffffffffffffffffffffffffffffffffff82169050919050565b6000620002328262000205565b9050919050565b6000620002468262000225565b9050919050565b620002588162000239565b81146200026457600080fd5b50565b60008151905062000278816200024d565b92915050565b60006200028b8262000225565b9050919050565b6200029d816200027e565b8114620002a957600080fd5b50565b600081519050620002bd8162000292565b92915050565b60008060408385031215620002dd57620002dc62000200565b5b6000620002ed8582860162000267565b92505060206200030085828601620002ac565b9150509250929050565b7f4e487b7100000000000000000000000000000000000000000000000000000000600052602260045260246000fd5b600060028204905060018216806200035257607f821691505b602082108114156200036957620003686200030a565b5b50919050565b6110e0806200037f6000396000f3fe608060405234801561001057600080fd5b50600436106100a95760003560e01c80638da5cb5b116100715780638da5cb5b1461014057806390332cd71461015e578063a5ce413b1461018e578063af3fb4b114610198578063f9075fc6146101c8578063fd5e6dd1146101e6576100a9565b806306fdde03146100ae5780633d9f37cc146100cc57806345bc78ab146100d65780637547c7a31461010657806389c95e9814610122575b600080fd5b6100b6610216565b6040516100c39190610ad4565b60405180910390f35b6100d46102a4565b005b6100f060048036038101906100eb9190610b59565b61048e565b6040516100fd9190610b9f565b60405180910390f35b610120600480360381019061011b9190610be6565b6104a6565b005b61012a610782565b6040516101379190610c72565b60405180910390f35b6101486107a8565b6040516101559190610c9c565b60405180910390f35b61017860048036038101906101739190610b59565b6107ce565b6040516101859190610cd2565b60405180910390f35b6101966107ee565b005b6101b260048036038101906101ad9190610b59565b6109b6565b6040516101bf9190610cd2565b60405180910390f35b6101d06109d6565b6040516101dd9190610d0e565b60405180910390f35b61020060048036038101906101fb9190610be6565b6109fc565b60405161020d9190610c9c565b60405180910390f35b6000805461022390610d58565b80601f016020809104026020016040519081016040528092919081815260200182805461024f90610d58565b801561029c5780601f106102715761010080835404028352916020019161029c565b820191906000526020600020905b81548152906001019060200180831161027f57829003601f168201915b505050505081565b600160009054906101000a900473ffffffffffffffffffffffffffffffffffffffff1673ffffffffffffffffffffffffffffffffffffffff163373ffffffffffffffffffffffffffffffffffffffff1614610334576040517f08c379a000000000000000000000000000000000000000000000000000000000815260040161032b90610dfc565b60405180910390fd5b60005b60048054905081101561048b5760006004828154811061035a57610359610e1c565b5b9060005260206000200160009054906101000a900473ffffffffffffffffffffffffffffffffffffffff1690506000600560008373ffffffffffffffffffffffffffffffffffffffff1673ffffffffffffffffffffffffffffffffffffffff168152602001908152602001600020549050600081111561047657600260009054906101000a900473ffffffffffffffffffffffffffffffffffffffff1673ffffffffffffffffffffffffffffffffffffffff1663a9059cbb83836040518363ffffffff1660e01b8152600401610431929190610e4b565b6020604051808303816000875af1158015610450573d6000803e3d6000fd5b505050506040513d601f19601f820116820180604052508101906104749190610ea0565b505b5050808061048390610efc565b915050610337565b50565b60056020528060005260406000206000915090505481565b600081116104e9576040517f08c379a00000000000000000000000000000000000000000000000000000000081526004016104e090610f91565b60405180910390fd5b600360009054906101000a900473ffffffffffffffffffffffffffffffffffffffff1673ffffffffffffffffffffffffffffffffffffffff166363b0545f3330846040518463ffffffff1660e01b815260040161054893929190610fb1565b6020604051808303816000875af1158015610567573d6000803e3d6000fd5b505050506040513d601f19601f8201168201806040525081019061058b9190610ea0565b5080600560003373ffffffffffffffffffffffffffffffffffffffff1673ffffffffffffffffffffffffffffffffffffffff168152602001908152602001600020546105d79190610fe8565b600560003373ffffffffffffffffffffffffffffffffffffffff1673ffffffffffffffffffffffffffffffffffffffff16815260200190815260200160002081905550600660003373ffffffffffffffffffffffffffffffffffffffff1673ffffffffffffffffffffffffffffffffffffffff16815260200190815260200160002060009054906101000a900460ff166106cf576004339080600181540180825580915050600190039060005260206000200160009091909190916101000a81548173ffffffffffffffffffffffffffffffffffffffff021916908373ffffffffffffffffffffffffffffffffffffffff1602179055505b6001600760003373ffffffffffffffffffffffffffffffffffffffff1673ffffffffffffffffffffffffffffffffffffffff16815260200190815260200160002060006101000a81548160ff0219169083151502179055506001600660003373ffffffffffffffffffffffffffffffffffffffff1673ffffffffffffffffffffffffffffffffffffffff16815260200190815260200160002060006101000a81548160ff02191690831515021790555050565b600360009054906101000a900473ffffffffffffffffffffffffffffffffffffffff1681565b600160009054906101000a900473ffffffffffffffffffffffffffffffffffffffff1681565b60066020528060005260406000206000915054906101000a900460ff1681565b6000600560003373ffffffffffffffffffffffffffffffffffffffff1673ffffffffffffffffffffffffffffffffffffffff16815260200190815260200160002054905060008111610875576040517f08c379a000000000000000000000000000000000000000000000000000000000815260040161086c9061108a565b60405180910390fd5b600360009054906101000a900473ffffffffffffffffffffffffffffffffffffffff1673ffffffffffffffffffffffffffffffffffffffff1663a9059cbb33836040518363ffffffff1660e01b81526004016108d2929190610e4b565b6020604051808303816000875af11580156108f1573d6000803e3d6000fd5b505050506040513d601f19601f820116820180604052508101906109159190610ea0565b506000600560003373ffffffffffffffffffffffffffffffffffffffff1673ffffffffffffffffffffffffffffffffffffffff168152602001908152602001600020819055506000600760003373ffffffffffffffffffffffffffffffffffffffff1673ffffffffffffffffffffffffffffffffffffffff16815260200190815260200160002060006101000a81548160ff02191690831515021790555050565b60076020528060005260406000206000915054906101000a900460ff1681565b600260009054906101000a900473ffffffffffffffffffffffffffffffffffffffff1681565b60048181548110610a0c57600080fd5b906000526020600020016000915054906101000a900473ffffffffffffffffffffffffffffffffffffffff1681565b600081519050919050565b600082825260208201905092915050565b60005b83811015610a75578082015181840152602081019050610a5a565b83811115610a84576000848401525b50505050565b6000601f19601f8301169050919050565b6000610aa682610a3b565b610ab08185610a46565b9350610ac0818560208601610a57565b610ac981610a8a565b840191505092915050565b60006020820190508181036000830152610aee8184610a9b565b905092915050565b600080fd5b600073ffffffffffffffffffffffffffffffffffffffff82169050919050565b6000610b2682610afb565b9050919050565b610b3681610b1b565b8114610b4157600080fd5b50565b600081359050610b5381610b2d565b92915050565b600060208284031215610b6f57610b6e610af6565b5b6000610b7d84828501610b44565b91505092915050565b6000819050919050565b610b9981610b86565b82525050565b6000602082019050610bb46000830184610b90565b92915050565b610bc381610b86565b8114610bce57600080fd5b50565b600081359050610be081610bba565b92915050565b600060208284031215610bfc57610bfb610af6565b5b6000610c0a84828501610bd1565b91505092915050565b6000819050919050565b6000610c38610c33610c2e84610afb565b610c13565b610afb565b9050919050565b6000610c4a82610c1d565b9050919050565b6000610c5c82610c3f565b9050919050565b610c6c81610c51565b82525050565b6000602082019050610c876000830184610c63565b92915050565b610c9681610b1b565b82525050565b6000602082019050610cb16000830184610c8d565b92915050565b60008115159050919050565b610ccc81610cb7565b82525050565b6000602082019050610ce76000830184610cc3565b92915050565b6000610cf882610c3f565b9050919050565b610d0881610ced565b82525050565b6000602082019050610d236000830184610cff565b92915050565b7f4e487b7100000000000000000000000000000000000000000000000000000000600052602260045260246000fd5b60006002820490506001821680610d7057607f821691505b60208210811415610d8457610d83610d29565b5b50919050565b7f63616c6c6572206d75737420626520746865206f776e657220666f722074686960008201527f732066756e6374696f6e00000000000000000000000000000000000000000000602082015250565b6000610de6602a83610a46565b9150610df182610d8a565b604082019050919050565b60006020820190508181036000830152610e1581610dd9565b9050919050565b7f4e487b7100000000000000000000000000000000000000000000000000000000600052603260045260246000fd5b6000604082019050610e606000830185610c8d565b610e6d6020830184610b90565b9392505050565b610e7d81610cb7565b8114610e8857600080fd5b50565b600081519050610e9a81610e74565b92915050565b600060208284031215610eb657610eb5610af6565b5b6000610ec484828501610e8b565b91505092915050565b7f4e487b7100000000000000000000000000000000000000000000000000000000600052601160045260246000fd5b6000610f0782610b86565b91507fffffffffffffffffffffffffffffffffffffffffffffffffffffffffffffffff821415610f3a57610f39610ecd565b5b600182019050919050565b7f616d6f756e742063616e6e6f74206265207a65726f0000000000000000000000600082015250565b6000610f7b601583610a46565b9150610f8682610f45565b602082019050919050565b60006020820190508181036000830152610faa81610f6e565b9050919050565b6000606082019050610fc66000830186610c8d565b610fd36020830185610c8d565b610fe06040830184610b90565b949350505050565b6000610ff382610b86565b9150610ffe83610b86565b9250827fffffffffffffffffffffffffffffffffffffffffffffffffffffffffffffffff0382111561103357611032610ecd565b5b828201905092915050565b7f5374616b696e672062616c616e6365206973207a65726f000000000000000000600082015250565b6000611074601783610a46565b915061107f8261103e565b602082019050919050565b600060208201905081810360008301526110a381611067565b905091905056fea2646970667358221220db3ed53615f1d7309db8da49db88d330c1036e55eabe2c0ed58aa97046a8a15a64736f6c634300080a0033",
  "immutableReferences": {},
  "source": "pragma solidity >= 0.8.0 < 0.9.0;\n\nimport \"./Dummy_Token.sol\";\nimport \"./Tether_Token.sol\";\n\ncontract Staking_Dapp{\n\tstring public name = \"Staking Dapp\";\n\taddress public owner;\n\tDummy public dummy_token;\n\tTether public tether_token;\n\n\taddress[] public stakers;\n\tmapping(address => uint) public stakingBalance;\n\tmapping(address => bool) public hasstaked;\n\tmapping(address => bool) public isstaking;\n\n\tconstructor(Dummy _dummyToken, Tether _tetherToken) public{\n\t\tdummy_token = _dummyToken;\n\t\ttether_token = _tetherToken;\n\t\towner = msg.sender;\n\t}\n\n\tfunction stakeTokens(uint _amount) public{\n\t\trequire(_amount > 0, \"amount cannot be zero\"); // Error handling for case when amount is 0\n\t\t\n\t\ttether_token.transferfrom(msg.sender, address(this), _amount); // Transferred tether to contract address\n\n\t\tstakingBalance[msg.sender] = stakingBalance[msg.sender] + _amount; // Update the staking balance\n\n\t\tif(!hasstaked[msg.sender]){\n\t\t\tstakers.push(msg.sender); // Update staking status\n\t\t}\n\n\t\tisstaking[msg.sender] = true;\n\t\thasstaked[msg.sender] = true;\n\t}\n\n\tfunction unstakeTokens() public{\n\t\tuint balance = stakingBalance[msg.sender]; // fetch staking balance \n\n\t\trequire(balance > 0, \"Staking balance is zero\"); // error handling if staking balance is 0\n\n\t\ttether_token.transfer(msg.sender, balance); // transferred back tether to tgoken\n\n\t\tstakingBalance[msg.sender] = 0; // update the staking balance\n\n\t\tisstaking[msg.sender] = false; // update the staking status\n\t}\n\n\tfunction issuedummy() public{\n\t\t\n\t\trequire(msg.sender == owner, \"caller must be the owner for this function\");\n\n\t\tfor(uint i = 0; i < stakers.length; i++){\n\t\t\taddress recipient = stakers[i];\n\t\t\tuint balance = stakingBalance[recipient];\n\t\t\tif(balance > 0){\n\t\t\t\tdummy_token.transfer(recipient, balance);\n\t\t\t}\n\t\t}\n\t}\n}\n",
  "sourcePath": "/Users/mlvb/Repos/solidity-training/staking_dapp/src/contracts/Staking_Dapp.sol",
  "compiler": {
    "name": "solc",
    "version": "0.8.10+commit.fc410830.Emscripten.clang"
  },
  "schemaVersion": "3.4.3",
  "updatedAt": "2021-12-03T12:39:51.504Z",
  "networkType": "ethereum",
  "devdoc": {
    "kind": "dev",
    "methods": {},
    "version": 1
  },
  "userdoc": {
    "kind": "user",
    "methods": {},
    "version": 1
  }
}